:100000000C94C8000C94E5000C94E5000C94E500F9
:100010000C94E5000C94E5000C94E5000C94E500CC
:100020000C94E5000C94E5000C94E5000C94E500BC
:100030000C94E5000C94E5000C94E5000C94E500AC
:100040000C94BB030C94E5000C94E5000C94E500C3
:100050000C94E5000C94E5000C94E5000C94E5008C
:100060000C94E5000C94E500084AD73B3BCE016EAA
:1000700084BCBFFDC12F3D6C74319ABD56833DDAFF
:100080003D00C77F11BED9E4BB4C3E916BAAAABE0E
:10009000000000803F0000407A10F35A00A0724E2A
:1000A00018090010A5D4E80000E87648170000E41D
:1000B0000B54020000CA9A3B000000E1F505000065
:1000C00080969800000040420F000000A0860100CA
:1000D0000000102700000000E8030000000064009A
:1000E000000000000A000000000001000000000005
:1000F0002C76D888DC674F0823DFC1DFAE59E1B129
:10010000B796E5E3E453C63AE651997696E8E6C237
:100110008426EB898C9B62ED407C6FFCEFBC9C9F3E
:1001200040F2BAA56FA5F490055A2AF75C936B6C60
:10013000F9676DC11BFCE0E40D47FEF520E6B50054
:10014000D0ED902E0300943577050080841E0800C2
:1001500000204E0A000000C80C333333330F986E72
:1001600012831141EF8D2114893BE65516CFFEE62F
:10017000DB18D1844B381BF77C1D901DA4BBE424F5
:10018000203284725E228100C9F124ECA1E53D2772
:1001900011241FBECFEFD8E0DEBFCDBF11E0A0E03D
:1001A000B1E0ECE4F4E102C005900D92A431B10796
:1001B000D9F721E0A4E1B1E001C01D92A336B20756
:1001C000E1F70E942C040C94240A0C94000080E2B5
:1001D0008093B800ECEBF0E0808184608083089528
:1001E000ECEBF0E080818823ECF7089584EA8093BB
:1001F000BC000E94F000089584EC8093BC000E9433
:10020000F0008091BB00089584E88093BC000E94B8
:10021000F0008091BB0008958093BB0084E8809338
:10022000BC000E94F00008951092C50081E0809308
:10023000C400E1ECF0E088E18083808186E0809377
:10024000C2000895E0ECF0E0908195FFFDCF80932F
:10025000C60008950F931F93CF93FC0180818823DC
:1002600059F08F01C0E00E942201CF5FF801EC0F2E
:10027000F11D80818111F7CFCF911F910F910895CA
:10028000CF93C82F0E94F60080ED0E940C018C2FA6
:100290000E940C010E94F60081ED0E940C010E9458
:1002A000FC00809362010E9404018093610184E953
:1002B0008093BC006091620170E0762F6627809188
:1002C0006101682B072E000C880B990BCF910895C4
:1002D0004F925F926F927F928F929F92AF92BF9256
:1002E000CF92DF92EF92FF92CF93DF9300D000D0B6
:1002F000CDB7DEB7C0903301D0903401E090350126
:10030000F0903601C0923B01D0923C01E0923D0159
:10031000F0923E0180913F0190914001A0914101F6
:10032000B09142018093330190933401A093350141
:10033000B0933601BC01CD016C197D098E099F096E
:100340000E94D30520E030E04AE754E40E945F05B4
:100350009B01AC01609337017093380180933901A0
:1003600090933A0160E070E080E89FE30E945F05AF
:1003700060932F017093300180933101909332018B
:100380008BE30E944001C0904701D09048010D2CA2
:10039000000CEE08FF08DC01CB018C0D9D1DAE1D8D
:1003A000BF1D80935D0190935E01A0935F01B093A8
:1003B00060018DE30E944001C0904501D09046014C
:1003C0000D2C000CEE08FF08DC01CB018C0D9D1DEF
:1003D000AE1DBF1D8093590190935A01A0935B01FC
:1003E000B0935C018FE30E944001C0904301D09024
:1003F00044010D2C000CEE08FF08DC01CB018C0D34
:100400009D1DAE1DBF1D8093550190935601A09375
:100410005701B093580183E40E9440016093510159
:1004200070935201809353019093540185E40E948C
:10043000400160934D0170934E0180934F01909362
:10044000500187E40E9440016093490170934A0182
:1004500080934B0190934C016091590170915A0126
:1004600080915B0190915C010E94D3054B015C017E
:1004700060915D0170915E0180915F0190916001DA
:100480000E94D30569837A838B839C830E944107F2
:100490002B013C01609155017091560180915701EB
:1004A000909158010E94D3050E9441076B017C0185
:1004B000A7019601C301B2010E94C4040E94010772
:1004C0009B01AC01C501B4010E945F050E9430058B
:1004D00020E030E044E353E40E948E0623EC35EF45
:1004E00048E450E40E945F052B013C0160931C012D
:1004F00070931D0180931E0190931F01C501B401EB
:100500000E9441074B015C01A5019401C701B6019E
:100510000E94C4040E9401079B01AC0169817A8199
:100520008B819C810E945F050E943005905820E0DD
:1005300030E044E353E40E948E0623EC35EF48E4B8
:1005400050E40E945F056B017C0160932001709371
:100550002101809322019093230180910001813039
:1005600061F4E4E1F1E04082518262827382C482EC
:10057000D582E682F7821092000180903701909038
:100580003801A0903901B0903A0160915101709109
:100590005201809153019091540123E830E040E0F2
:1005A00050E00E945A07CA01B9010E94D305A50173
:1005B00094010E948E06E4E1F1E0208131814281C4
:1005C00053810E94C40428E431EE4AE75FE30E94AD
:1005D0008E0669837A838B839C832AE037ED43EA16
:1005E0005CE3C301B2010E948E069B01AC016981EC
:1005F0007A818B819C810E94C404E4E1F1E06083F4
:1006000071838283938360914D0170914E0180913B
:100610004F019091500123E830E040E050E00E940B
:100620005A07CA01B9010E94D305A50194010E948D
:100630008E06209118013091190140911A015091B4
:100640001B010E94C40428E431EE4AE75FE30E94E4
:100650008E064B015C012AE037ED43EA5CE3C701FB
:10066000B6010E948E069B01AC01C501B4010E9437
:10067000C404609318017093190180931A01909338
:100680001B0184E191E00F900F900F900F90DF918C
:10069000CF91FF90EF90DF90CF90BF90AF909F9061
:1006A0008F907F906F905F904F9008958BE30E94A2
:1006B000400160935D0170935E0180935F019093B0
:1006C00060018DE30E9440016093590170935A01CB
:1006D00080935B0190935C018FE30E9440016093E3
:1006E000550170935601809357019093580183E40C
:1006F0000E94400160935101709352018093530115
:100700009093540185E40E94400160934D017093E1
:100710004E0180934F019093500187E40E94400165
:100720006093490170934A0180934B0190934C016F
:1007300080915D0190915E019195819591099093D1
:100740004801809347018091590190915A019195F8
:10075000819591099093460180934501209155011F
:100760003091560180E090E4821B930B90934401FA
:100770008093430108951F920F920FB60F92112498
:100780002F933F938F939F93AF93BF9380912501B6
:1007900090912601A0912701B09128013091240168
:1007A00023E0230F2D3720F40196A11DB11D05C0B4
:1007B00026E8230F0296A11DB11D209324018093EA
:1007C000250190932601A0932701B09328018091E1
:1007D000290190912A01A0912B01B0912C01019641
:1007E000A11DB11D8093290190932A01A0932B0193
:1007F000B0932C01BF91AF919F918F913F912F9119
:100800000F900FBE0F901F9018953FB7F8948091EE
:10081000290190912A01A0912B01B0912C0126B5BC
:10082000A89B02C02F3FA1F43FBFBA2FA92F982F3A
:100830008827820F911DA11DB11DBC01CD01660F3E
:10084000771F881F991F660F771F881F991F0895AC
:100850000196A11DB11DE8CFCF93DF93CDB7DEB7D1
:100860002C970FB6F894DEBF0FBECDBF2FEF8BE7EE
:1008700092E9215080409040E1F700C0000084B52B
:10088000836084BD85B5836085BDEEE6F0E0808140
:100890008160808378940E94E7000E94140185E0C3
:1008A00091E00E942A010E945603789480913301BE
:1008B00090913401A0913501B091360180933B01B4
:1008C00090933C01A0933D01B0933E010E9405042A
:1008D0006093330170933401809335019093360116
:1008E00000913B0110913C0120913D0130913E016E
:1008F000601B710B820B930B0E94D30520E034E246
:1009000044E759E40E945F059B01AC016093370105
:10091000709338018093390190933A0160E070E060
:1009200080E89FE30E945F0560932F017093300180
:1009300080933101909332010E94680190932E01BF
:1009400080932D01FC0160817181828193818E01F0
:10095000095F1F4F21E043E00E949B07E0912D01BA
:10096000F0912E016481758186819781065011096D
:1009700021E043E00E949B078FE79EE30197F1F798
:1009800000C0000093CF5058BB27AA270E94DB0469
:100990000C944C060E943E0638F00E94450620F05A
:1009A00039F49F3F19F426F40C9414060EF4E095E4
:1009B000E7FB0C940E06E92F0E945D0658F3BA1768
:1009C000620773078407950720F079F4A6F50C9465
:1009D0007F060EF4E0950B2EBA2FA02D0B01B90166
:1009E00090010C01CA01A0011124FF27591B99F0A5
:1009F000593F50F4503E68F11A16F040A22F232FB1
:100A0000342F4427585FF3CF469537952795A79500
:100A1000F0405395C9F77EF41F16BA0B620B730BA7
:100A2000840BBAF09150A1F0FF0FBB1F661F771F18
:100A3000881FC2F70EC0BA0F621F731F841F48F4CD
:100A4000879577956795B795F7959E3F08F0B0CF56
:100A50009395880F08F09927EE0F9795879508953D
:100A6000DF93DD27B92FBF7740E85FE3161617063F
:100A700048075B0718F4D92F0E9486069F938F932F
:100A80007F936F930E944107E8E6F0E00E9417060B
:100A90000E944C062F913F914F915F910E94A106B9
:100AA000DD2351F09058A2EA2AED3FE049EC5FE3E4
:100AB000D0785D270E94DB04DF910C944C060E94E5
:100AC00073050C944C060E94450658F00E943E06A1
:100AD00040F029F45F3F29F00C940E0651110C945C
:100AE00080060C9414060E945D0668F39923B1F306
:100AF000552391F3951B550BBB27AA276217730744
:100B0000840738F09F5F5F4F220F331F441FAA1FD7
:100B1000A9F335D00E2E3AF0E0E832D09150504093
:100B2000E695001CCAF72BD0FE2F29D0660F771F41
:100B3000881FBB1F261737074807AB07B0E809F027
:100B4000BB0B802DBF01FF2793585F4F3AF09E3FAC
:100B5000510578F00C940E060C9480065F3FE4F388
:100B6000983ED4F3869577956795B795F7959F5FEF
:100B7000C9F7880F911D9695879597F90895E1E03B
:100B8000660F771F881FBB1F621773078407BA079A
:100B900020F0621B730B840BBA0BEE1F88F7E095F5
:100BA0000895E89409C097FB3EF490958095709560
:100BB00061957F4F8F4F9F4F9923A9F0F92F96E9A9
:100BC000BB279395F695879577956795B795F1111E
:100BD000F8CFFAF4BB0F11F460FF1BC06F5F7F4FBB
:100BE0008F4F9F4F16C0882311F096E911C07723CD
:100BF00021F09EE8872F762F05C0662371F096E8D6
:100C0000862F70E060E02AF09A95660F771F881FA4
:100C1000DAF7880F9695879597F9089597F99F6762
:100C200080E870E060E008959FEF80EC0895DF9326
:100C3000CF931F930F93FF92EF92DF927B018C0172
:100C4000689406C0DA2EEF010E94A106FE01E89426
:100C5000A5912591359145915591A6F3EF010E94FB
:100C6000DB04FE019701A801DA9469F7DF90EF90A9
:100C7000FF900F911F91CF91DF91089500240A9466
:100C80001616170618060906089500240A94121667
:100C90001306140605060895092E0394000C11F49A
:100CA000882352F0BB0F40F4BF2B11F460FF04C047
:100CB0006F5F7F4F8F4F9F4F089557FD9058440FA0
:100CC000551F59F05F3F71F04795880F97FB991FAB
:100CD00061F09F3F79F08795089512161306140668
:100CE000551FF2CF4695F1DF08C0161617061806F5
:100CF000991FF1CF86957105610508940895E894D0
:100D0000BB2766277727CB0197F908959B01AC0194
:100D100060E070E080E89FE30C945F050E94A1060C
:100D20000C944C060E943E0638F00E94450620F0C6
:100D3000952311F00C940E060C94140611240C94B7
:100D400080060E945D0670F3959FC1F3950F50E0F9
:100D5000551F629FF001729FBB27F00DB11D639F6D
:100D6000AA27F00DB11DAA1F649F6627B00DA11D13
:100D7000661F829F2227B00DA11D621F739FB00DB9
:100D8000A11D621F839FA00D611D221F749F332729
:100D9000A00D611D231F849F600D211D822F762FC2
:100DA0006A2F11249F5750409AF0F1F088234AF09F
:100DB000EE0FFF1FBB1F661F771F881F915050400B
:100DC000A9F79E3F510580F00C940E060C94800606
:100DD0005F3FE4F3983ED4F3869577956795B79592
:100DE000F795E7959F5FC1F7FE2B880F911D9695AC
:100DF000879597F9089519F416F40C9414060C9439
:100E000045070E946506B8F39923C9F3B6F39F57C7
:100E1000550B87FF0E9453070024A0E640EA90018B
:100E200080585695979528F4805C660F771F881F29
:100E300020F026173707480730F4621B730B840B2A
:100E4000202931294A2BA69517940794202531256E
:100E50004A2758F7660F771F881F20F02617370795
:100E6000480730F4620B730B840B200D311D411DBC
:100E7000A09581F7B901842F9158880F9695879591
:100E800008959B01AC010C948E069F3F31F0915068
:100E900020F4879577956795B795880F911D96955E
:100EA000879597F9089591505040660F771F881FD6
:100EB000D2F70895052E97FB1EF400940E94710747
:100EC00057FD07D00E94790707FC03D04EF40C941D
:100ED000710750954095309521953F4F4F4F5F4F8B
:100EE000089590958095709561957F4F8F4F9F4F96
:100EF0000895A1E21A2EAA1BBB1BFD010DC0AA1F5B
:100F0000BB1FEE1FFF1FA217B307E407F50720F072
:100F1000A21BB30BE40BF50B661F771F881F991FED
:100F20001A9469F760957095809590959B01AC0136
:100F3000BD01CF010895EF920F931F93CF93DF93DD
:100F4000E80147FD02C034E001C034E1042E000C8A
:100F5000550B57FF03C0519541955109E32E022FC0
:100F6000242FAE010E94BB07CE01DF91CF911F91CC
:100F70000F91EF900895A9E0B0E0E1ECF7E00C9458
:100F8000F3096A01122FB02E2BE3201720F0FF2463
:100F9000F394F00E02C02CE3F22E0F2D27E0AE01E9
:100FA0004F5F5F4F0E941509BC014981842F8970F2
:100FB000813031F0E1FC06C0E0FE06C090E205C0E1
:100FC0009DE203C09BE201C090E05E2D507143FFA3
:100FD0003CC0911102C083E001C084E0811718F485
:100FE000212F281B01C020E051110BC0F601822FD8
:100FF00030E2882319F031938150FBCFC20ED11C0F
:1010000020E0992329F0D6019C93F60131966F01D7
:10101000C6010396E2FE0AC03EE4D6013C9341E4D9
:1010200011964C93119712963C9306C03EE6F6013A
:10103000308341E641833283FC01322F40E2332387
:1010400009F442C041933150FACF42FF44C091119C
:1010500002C083E001C084E0811718F4212F281B0F
:1010600001C020E051110BC0F601822F30E288232D
:1010700019F031938150FBCFC20ED11C20E099238F
:1010800029F0D6019C93F60131966F01C6010396B3
:10109000E2FE0BC039E4D6013C933EE411963C934A
:1010A000119736E412963C9307C039E6F601308377
:1010B0003EE6318336E63283FC01322F40E23323B1
:1010C00019F041933150FBCFFC01E20FF11D10826A
:1010D0008EEF9FEFA6C021E030E0911102C020E02A
:1010E00030E0161617061CF4FB01319602C0E1E051
:1010F000F0E02E0F3F1FBB2021F0EB2DF0E03196EA
:1011000002C0E0E0F0E02E0F3F1FE12FF0E02E17CD
:101110003F071CF4121B212F01C020E08E2D887187
:1011200059F4F601822F30E2882319F0319381506F
:10113000FBCFC20ED11C20E0992329F0D6019C934D
:10114000F60131966F0151110BC0F601822F90E329
:10115000882319F091938150FBCFC20ED11C20E05F
:101160000F2D060F9A81342F307144FF03C0913345
:1011700009F40150101624F4093018F008E001C0F9
:1011800001E0AB0177FF02C040E050E0FB01E41B4F
:10119000F50BA1E0B0E0AC0FBD1FEA0FFB1F8EE224
:1011A000A82E4B01801A91080B2D10E01195019586
:1011B00011094F3FBFEF5B0721F4D601AC921196A6
:1011C0006D01641775072CF08416950614F481815F
:1011D00001C080E3415051093196D60111967D013D
:1011E0004017510724F0D6018C936701E2CF6417B2
:1011F000750739F4963320F4953319F4311101C091
:1012000081E3F6018083F701822F90E2882319F0B1
:1012100091938150FBCFF701E20FF11D108280E026
:1012200090E02996ECE00C940F0A283008F027E0B3
:101230003327DA01990F311D87FD91600096610512
:10124000710539F432602E5F3D9330E32A95E1F762
:1012500008959F3F30F080387105610509F03C5FCB
:101260003C5F3D93913008F08068911DDF93CF93F0
:101270001F930F93FF92EF92192F987F9695E92F66
:1012800096959695E90FFF27E051FF4F9927332751
:10129000EE24FF24A701E70105900894079428F4A1
:1012A000360FE71EF81E491F511D660F771F881F56
:1012B000991F0694A1F70590079428F4E70EF81EED
:1012C000491F561FC11D770F881F991F661F06945F
:1012D000A1F70590079428F4F80E491F561FC71F61
:1012E000D11D880F991F661F771F0694A1F70590DF
:1012F000079420F4490F561FC71FD81F990F661F68
:10130000771F881F0694A9F784911095177041F0F4
:10131000D695C79557954795F794E7941A95C1F7D1
:10132000E6E9F0E0689415901591359165919591F5
:1013300005907FE27395E118F10A430B560BC90B38
:10134000D009C0F7E10CF11E431F561FC91FD01D65
:101350007EF4703311F48A95E6CFE894015030F0B2
:10136000080F0AF40027021708F4202F2395022FF4
:101370007A3328F079E37D932A95E9F710C07D93BD
:101380002A9589F60694979567953795179517943A
:10139000E118F10A430B560BC90BD00998F02395BD
:1013A0007E9173957A3308F070E37C932013B8F73D
:1013B0007E9170617D9330F0839571E37D9370E34E
:1013C0002A95E1F71124EF90FF900F911F91CF9193
:1013D000DF91992787FD909508952F923F924F9224
:1013E0005F926F927F928F929F92AF92BF92CF92B5
:1013F000DF92EF92FF920F931F93CF93DF93CDB7BE
:10140000DEB7CA1BDB0B0FB6F894DEBF0FBECDBF35
:1014100009942A88398848885F846E847D848C8406
:101420009B84AA84B984C884DF80EE80FD800C810F
:101430001B81AA81B981CE0FD11D0FB6F894DEBFF2
:0C1440000FBECDBFED010895F894FFCF62
:10144C000109000A0043616C6962726174696E671C
:04145C002E2E2E0002
:00000001FF
