S01C00004D534B2D466C69676874436F6E74726F6C6C65722E737265636E
S11300000C94B1000C94CE000C94CE000C94CE0051
S11300100C94F1020C94CE000C94CE000C94CE00FF
S11300200C94CE000C94CE000C94CE000C94CE0014
S11300300C94CE000C94CE000C94CE000C94CE0004
S11300400C9429010C94CE000C94CE000C94CE0098
S11300500C94CE000C94CE000C94CE000C94CE00E4
S11300600C94CE000C94CE0000407A10F35A00A0F9
S1130070724E18090010A5D4E80000E8764817006D
S113008000E40B54020000CA9A3B000000E1F505AD
S1130090000080969800000040420F000000A086F7
S11300A001000000102700000000E8030000000029
S11300B06400000000000A000000000001000000CD
S11300C000002C76D888DC674F0823DFC1DFAE59E7
S11300D0E1B1B796E5E3E453C63AE651997696E87A
S11300E0E6C28426EB898C9B62ED407C6FFCEFBCFE
S11300F09C9F40F2BAA56FA5F490055A2AF75C9329
S11301006B6CF9676DC11BFCE0E40D47FEF520E65E
S1130110B500D0ED902E0300943577050080841E41
S1130120080000204E0A000000C80C333333330F9C
S1130130986E12831141EF8D2114893BE65516CF39
S1130140FEE6DB18D1844B381BF77C1D901DA4BB45
S1130150E424203284725E228100C9F124ECA1E5FA
S11301603D2711241FBECFEFD8E0DEBFCDBF11E085
S1130170A0E0B1E0E8EEFDE002C005900D92A430ED
S1130180B107D9F721E0A4E0B1E001C01D92AD357B
S1130190B207E1F70E9434020C94F2060C940000BA
S11301A08CE08093B800ECEBF0E080818460808385
S11301B00895ECEBF0E080818823ECF7089584EA5D
S11301C08093BC000E94D900089584EC8093BC0005
S11301D00E94D9008091BB00089584E88093BC00FC
S11301E00E94D9008091BB0008958093BB0084E8ED
S11301F08093BC000E94D90008951092C50081E04C
S11302008093C400E1ECF0E088E18083808186E0A3
S11302108093C2000895E0ECF0E0908195FFFDCF5B
S11302208093C60008950F931F93CF93FC018081A0
S1130230882359F08F01C0E00E940B01CF5FF801C1
S1130240EC0FF11D80818111F7CFCF911F910F9198
S113025008951F920F920FB60F9211242F933F937C
S11302608F939F93AF93BF938091550190915601C3
S1130270A0915701B09158013091540123E0230F0C
S11302802D3720F40196A11DB11D05C026E8230FCA
S11302900296A11DB11D20935401809355019093A2
S11302A05601A0935701B093580180915901909140
S11302B05A01A0915B01B0915C010196A11DB11D91
S11302C08093590190935A01A0935B01B0935C0110
S11302D0BF91AF919F918F913F912F910F900FBE3E
S11302E00F901F9018953FB7F89480915901909101
S11302F05A01A0915B01B0915C0126B5A89B02C094
S11303002F3FA1F43FBFBA2FA92F982F8827820F20
S1130310911DA11DB11DBC01CD01660F771F881F62
S1130320991F660F771F881F991F08950196A11DB5
S1130330B11DE8CF789484B5836084BD85B58360AE
S113034085BDEEE6F0E08081816080830895CF93DF
S1130350C82F0E94DF0080ED0E94F5008C2F0E94C0
S1130360F5000E94DF0081ED0E94F5000E94E50087
S1130370809353010E94ED008093520184E980939D
S1130380BC006091530170E0762F66278091520182
S1130390682B072E000C880B990BCF9108958BE3E3
S11303A00E94A70160934E0170934F018093500106
S11303B0909351018DE30E94A70160934A017093C9
S11303C04B0180934C0190934D018FE30E94A70150
S11303D060934601709347018093480190934901CB
S11303E083E40E94A70160934201709343018093C8
S11303F044019093450185E40E94A70160933E0166
S113040070933F01809340019093410187E40E94DF
S1130410A70160933A0170933B0180933C01909350
S11304203D0180914E0190914F01919581959109E3
S1130430909339018093380180914A0190914B0146
S1130440919581959109909337018093360120917C
S113045046013091470180E090E4821B930B909316
S11304603501809334010895CF93DF93CDB7DEB780
S11304702C970FB6F894DEBF0FBECDBF2FEF8BE7DE
S113048092E9215080409040E1F700C00000E8E686
S1130490F0E0808182608083ECE6F0E0808183601C
S11304A080830E949A010E94D0000E94FD000E9455
S11304B0CF018AB1806F8AB90F2EF8E2EF2EF1E0F6
S11304C0FF2EF02DF70160817181072E000C880B3F
S11304D0990B0E942E048E01095F1F4F20E045E016
S11304E00E946904F70162817381072E000C880B56
S11304F0990B0E942E040650110920E045E00E9449
S11305006904CE0107960E94130180E091E00E94E5
S11305101301C8010E94130182E091E00E941301BB
S1130520F70180819181813EF5E09F075CF10E9493
S11305307301F70100811181012E000C220B330B92
S1130540DC01CB01801B910BA20BB30B8093140134
S113055090931501A0931601B09317015F980E9420
S1130560730100911401109115012091160130912D
S11305701701601771078207930788F35D9A5E9AE3
S11305805F9AA0CF883D95400CF09CCF0E947301E8
S1130590F70100811181012E000C220B330BDC01C9
S11305A0CB01800F911FA21FB31F8093140190935E
S11305B01501A0931601B09317015E980E94730170
S11305C00091140110911501209116013091170129
S11305D0601771078207930788F35E9A5D9A5F9AA2
S11305E071CF1F920F920FB60F9211240F931F9386
S11305F02F933F934F935F936F937F938F939F9327
S1130600AF93BF93EF93FF930E9473016093300104
S1130610709331018093320190933301309B21C058
S113062000911001109111012091120130911301D8
S1130630012B022B032BA9F501E010E020E030E0B0
S113064000931001109311012093120130931301B0
S113065060932401709325018093260190932701D0
S113066020C00091100110911101209112013091CC
S11306701301013011052105310599F4109210017F
S11306801092110110921201109213012091240171
S113069030912501AB01421B530B50932901409328
S11306A02801319B21C000910C0110910D01209172
S11306B00E0130910F01012B022B032BA9F501E050
S11306C010E020E030E000930C0110930D01209322
S11306D00E0130930F0160932001709321018093E8
S11306E022019093230120C000910C0110910D016F
S11306F020910E0130910F010130110521053105C2
S113070099F410920C0110920D0110920E011092A6
S11307100F012091200130912101AB01421B530BA9
S113072050932B0140932A01329B21C00091080170
S11307301091090120910A0130910B01012B022B28
S1130740032BA9F501E010E020E030E0009308015C
S11307501093090120930A0130930B0160931C014B
S113076070931D0180931E0190931F0120C000917E
S113077008011091090120910A0130910B01013007
S113078011052105310599F410920801109209010F
S113079010920A0110920B0120911C0130911D014D
S11307A0AB01421B530B50932D0140932C01339BFF
S11307B021C000910401109105012091060130919E
S11307C00701012B022B032BA1F501E010E020E02F
S11307D030E0009304011093050120930601309347
S11307E00701609318017093190180931A01909383
S11307F01B011FC000910401109105012091060105
S113080030910701013011052105310591F4109251
S11308100401109205011092060110920701209123
S1130820180130911901621B730B70932F016093AF
S11308302E01FF91EF91BF91AF919F918F917F9185
S11308406F915F914F913F912F911F910F910F9055
S11308500FBE0F901F901895E89409C097FB3EF4C3
S113086090958095709561957F4F8F4F9F4F9923F9
S1130870A9F0F92F96E9BB279395F6958795779577
S11308806795B795F111F8CFFAF4BB0F11F460FF37
S11308901BC06F5F7F4F8F4F9F4F16C0882311F08F
S11308A096E911C0772321F09EE8872F762F05C0A3
S11308B0662371F096E8862F70E060E02AF09A953E
S11308C0660F771F881FDAF7880F9695879597F933
S11308D00895EF920F931F93CF93DF93E80147FDA1
S11308E002C034E001C034E1042E000C550B57FF64
S11308F003C0519541955109E32E022F242FAE01D7
S11309000E948904CE01DF91CF911F910F91EF9046
S11309100895A9E0B0E0EFE8F4E00C94C1066A01A0
S1130920122FB02E2BE3201720F0FF24F394F00EA7
S113093002C02CE3F22E0F2D27E0AE014F5F5F4F74
S11309400E94E305BC014981842F8970813031F014
S1130950E1FC06C0E0FE06C090E205C09DE203C0D3
S11309609BE201C090E05E2D507143FF3CC09111A9
S113097002C083E001C084E0811718F4212F281BF2
S113098001C020E051110BC0F601822F30E2882310
S113099019F031938150FBCFC20ED11C20E0992372
S11309A029F0D6019C93F60131966F01C601039696
S11309B0E2FE0AC03EE4D6013C9341E411964C9316
S11309C0119712963C9306C03EE6F601308341E649
S11309D041833283FC01322F40E2332309F442C0C5
S11309E041933150FACF42FF44C0911102C083E0D9
S11309F001C084E0811718F4212F281B01C020E0D6
S1130A0051110BC0F601822F30E2882319F0319383
S1130A108150FBCFC20ED11C20E0992329F0D601CE
S1130A209C93F60131966F01C6010396E2FE0BC05A
S1130A3039E4D6013C933EE411963C93119736E495
S1130A4012963C9307C039E6F60130833EE63183C3
S1130A5036E63283FC01322F40E2332319F041930E
S1130A603150FBCFFC01E20FF11D10828EEF9FEF9E
S1130A70A6C021E030E0911102C020E030E016165B
S1130A8017061CF4FB01319602C0E1E0F0E02E0FE2
S1130A903F1FBB2021F0EB2DF0E0319602C0E0E0D7
S1130AA0F0E02E0F3F1FE12FF0E02E173F071CF45C
S1130AB0121B212F01C020E08E2D887159F4F601FC
S1130AC0822F30E2882319F031938150FBCFC20E7C
S1130AD0D11C20E0992329F0D6019C93F60131968C
S1130AE06F0151110BC0F601822F90E3882319F096
S1130AF091938150FBCFC20ED11C20E00F2D060F25
S1130B009A81342F307144FF03C0913309F40150AA
S1130B10101624F4093018F008E001C001E0AB011C
S1130B2077FF02C040E050E0FB01E41BF50BA1E0BD
S1130B30B0E0AC0FBD1FEA0FFB1F8EE2A82E4B01E5
S1130B40801A91080B2D10E01195019511094F3F62
S1130B50BFEF5B0721F4D601AC9211966D016417C7
S1130B6075072CF08416950614F4818101C080E386
S1130B70415051093196D60111967D014017510714
S1130B8024F0D6018C936701E2CF6417750739F41A
S1130B90963320F4953319F4311101C081E3F60141
S1130BA08083F701822F90E2882319F0919381507A
S1130BB0FBCFF701E20FF11D108280E090E029964F
S1130BC0ECE00C94DD06283008F027E03327DA0146
S1130BD0990F311D87FD916000966105710539F407
S1130BE032602E5F3D9330E32A95E1F708959F3FED
S1130BF030F080387105610509F03C5F3C5F3D933E
S1130C00913008F08068911DDF93CF931F930F9369
S1130C10FF92EF92192F987F9695E92F96959695C6
S1130C20E90FFF27EE53FF4F99273327EE24FF24C4
S1130C30A701E70105900894079428F4360FE71EEE
S1130C40F81E491F511D660F771F881F991F0694B0
S1130C50A1F70590079428F4E70EF81E491F561FC4
S1130C60C11D770F881F991F661F0694A1F7059071
S1130C70079428F4F80E491F561FC71FD11D880F6B
S1130C80991F661F771F0694A1F70590079420F417
S1130C90490F561FC71FD81F990F661F771F881F3C
S1130CA00694A9F784911095177041F0D695C795CD
S1130CB057954795F794E7941A95C1F7E8E6F0E05D
S1130CC068941590159135916591959105907FE201
S1130CD07395E118F10A430B560BC90BD009C0F701
S1130CE0E10CF11E431F561FC91FD01D7EF4703343
S1130CF011F48A95E6CFE894015030F0080F0AF415
S1130D000027021708F4202F2395022F7A3328F0A6
S1130D1079E37D932A95E9F710C07D932A9589F6A6
S1130D20069497956795379517951794E118F10AE6
S1130D30430B560BC90BD00998F023957E917395FC
S1130D407A3308F070E37C932013B8F77E917061D6
S1130D507D9330F0839571E37D9370E32A95E1F7F9
S1130D601124EF90FF900F911F91CF91DF9199275C
S1130D7087FD909508952F923F924F925F926F92C4
S1130D807F928F929F92AF92BF92CF92DF92EF9217
S1130D90FF920F931F93CF93DF93CDB7DEB7CA1B98
S1130DA0DB0B0FB6F894DEBF0FBECDBF09942A88C3
S1130DB0398848885F846E847D848C849B84AA846B
S1130DC0B984C884DF80EE80FD800C811B81AA81F8
S1130DD0B981CE0FD11D0FB6F894DEBF0FBECDBFC3
S10B0DE0ED010895F894FFCF22
S1070DE809000A00F0
S9030000FC
