:100000000C9434000C94D1010C9451000C945100C8
:100010000C9451000C9451000C9451000C9451001C
:100020000C9451000C9451000C9451000C9451000C
:100030000C9451000C9451000C9451000C945100FC
:100040000C9451000C9451000C9451000C945100EC
:100050000C9451000C9451000C9451000C945100DC
:100060000C9451000C94510011241FBECFEFD8E026
:10007000DEBFCDBF11E0A0E0B1E0EEE3F4E002C0EE
:1000800005900D92A230B107D9F721E0A2E0B1E0CE
:1000900001C01D92A430B207E1F70E94AB010C949D
:1000A0001D020C9400009BB19F70282F207F922B83
:1000B0009BB928982C9A35E03A95F1F700002C98D6
:1000C000EFE1F3E03197F1F700C000002BB12F70A2
:1000D000F0E18F9FC0011124822B8BB92C9A35E05F
:1000E0003A95F1F700002C988FE39FE10197F1F723
:1000F00000C0000008959FEF9AB984B1896384B964
:1001000094B92FEF89EF90E0215080409040E1F7C3
:1001100000C0000081E00E9453008FE39FE101973F
:10012000F1F700C0000083E30E94530082E30E94C5
:10013000530088E20E9453008CE00E94530086E046
:100140000E94530081E00E9453008FE39FE10197DA
:10015000F1F700C0000008959BB19F70282F207F09
:10016000922B9BB9289A2C9A35E03A95F1F700002A
:100170002C98EFE1F3E03197F1F700C000002BB1CC
:100180002F70F0E18F9FC0011124822B8BB92C9A24
:1001900035E03A95F1F700002C988FE39FE1019745
:1001A000F1F700C0000008950F931F93CF93FC0157
:1001B0008081882379F08F01C0E00E94AC0085ED3A
:1001C0008A95F1F70000CF5FF801EC0FF11D8081F7
:1001D0008111F3CFCF911F910F91089580580E9404
:1001E000530085ED8A95F1F700000895CF93DF93D2
:1001F00000D000D0CDB7DEB71A82198220E430E0FB
:100200003C832B83E62FF0E0EE0FFF1FEC0FFD1F6A
:1002100021813281A901480F511DCA010E94EE00BF
:100220000F900F900F900F90DF91CF910895CF9383
:10023000DF93EA010E94F600CE010E94D400DF9114
:10024000CF910895CF92DF92EF92FF920F931F9379
:10025000CF93DF93CDB7DEB7D82EC62ECA01EDB649
:10026000FEB64DB75EB7421B530B0FB6F8945EBF98
:100270000FBE4DBF0DB71EB70F5F1F4F4AE0B8014D
:100280000E94E801A8016C2D8D2D0E9417010FB668
:10029000F894FEBE0FBEEDBEDF91CF911F910F917E
:1002A000FF90EF90DF90CF9008951092C50087E601
:1002B0008093C400E1ECF0E088E18083808186E0F7
:1002C0008093C2000895E0ECF0E0908195FFFDCFAF
:1002D0008093C60008950F931F93CF93FC018081F4
:1002E000882359F08F01C0E00E946301CF5FF801BD
:1002F000EC0FF11D80818111F7CFCF911F910F91EC
:100300000895EF92FF920F931F93CF93DF93CDB792
:10031000DEB7EDB6FEB62DB73EB7261B370B0FB6D0
:10032000F8943EBF0FBE2DBF0DB71EB70F5F1F4F16
:100330004AE0B8010E94E801C8010E946B010FB6B3
:10034000F894FEBE0FBEEDBEDF91CF911F910F91CD
:10035000FF90EF9008950E9455010E947B00E9E60E
:10036000F0E0808182608083E89A789410920301A3
:1003700010920201409102015091030122E030E00D
:1003800060E080E00E94220162E070E08091020162
:10039000909103010E94810180E091E00E946B0135
:1003A000E9CF1F920F920FB60F9211248F939F9354
:1003B0008091020190910301019690930301809333
:1003C00002019F918F910F900FBE0F901F90189573
:1003D000BB274A3031F4992322F4BDE290958195F0
:1003E0009F4F0C94F401BB27FB015527AA27880FC8
:1003F000991FAA1FA41710F0A41B83955051B9F799
:10040000A05DAA3308F0A95DA193009779F7B11117
:10041000B1931192CB010C940D02DC01FC01672F0A
:1004200071917723E1F7329704C07C916D937083CB
:0E0430006291AE17BF07C8F30895F894FFCF8E
:02043E000A00B2
:00000001FF
