S01900004D505539323530207573696E67206932632E73726563E5
S11300000C94B1000C94CE000C94CE000C94CE0051
S11300100C94CE000C94CE000C94CE000C94CE0024
S11300200C94CE000C94CE000C94CE000C94CE0014
S11300300C94CE000C94CE000C94CE000C94CE0004
S11300400C94CE000C94CE000C94CE000C94CE00F4
S11300500C94CE000C94CE000C94CE000C94CE00E4
S11300600C94CE000C94CE0000407A10F35A00A0F9
S1130070724E18090010A5D4E80000E8764817006D
S113008000E40B54020000CA9A3B000000E1F505AD
S1130090000080969800000040420F000000A086F7
S11300A001000000102700000000E8030000000029
S11300B06400000000000A000000000001000000CD
S11300C000002C76D888DC674F0823DFC1DFAE59E7
S11300D0E1B1B796E5E3E453C63AE651997696E87A
S11300E0E6C28426EB898C9B62ED407C6FFCEFBCFE
S11300F09C9F40F2BAA56FA5F490055A2AF75C9329
S11301006B6CF9676DC11BFCE0E40D47FEF520E65E
S1130110B500D0ED902E0300943577050080841E41
S1130120080000204E0A000000C80C333333330F9C
S1130130986E12831141EF8D2114893BE65516CF39
S1130140FEE6DB18D1844B381BF77C1D901DA4BB45
S1130150E424203284725E228100C9F124ECA1E5FA
S11301603D2711241FBECFEFD8E0DEBFCDBF11E085
S1130170A0E0B1E0E6ECFCE002C005900D92A432F0
S1130180B107D9F721E0A4E2B1E001C01D92A63283
S1130190B207E1F70E9459020C9461060C94000026
S11301A080E28093B800ECEBF0E08081846080838F
S11301B00895ECEBF0E080818823ECF7089584EA5D
S11301C08093BC000E94D900089584EC8093BC0005
S11301D00E94D9008091BB00089584E88093BC00FC
S11301E00E94D9008091BB0008958093BB0084E8ED
S11301F08093BC000E94D90008959BB19F70282F62
S1130200207F922B9BB928982C9A35E03A95F1F7E8
S113021000002C98EFE1F3E03197F1F700C0000003
S11302202BB12F70F0E18F9FC0011124822B8BB969
S11302302C9A35E03A95F1F700002C988FE39FE172
S11302400197F1F700C0000008959FEF9AB984B1B7
S1130250896384B994B92FEF89EF90E021508040ED
S11302609040E1F700C0000081E00E94FD008FE3B0
S11302709FE10197F1F700C0000083E30E94FD00B5
S113028082E30E94FD0088E20E94FD008CE00E944F
S1130290FD0086E00E94FD0081E00E94FD008FE3E6
S11302A09FE10197F1F700C0000008959BB19F7092
S11302B0282F207F922B9BB9289A2C9A35E03A95C7
S11302C0F1F700002C98EFE1F3E03197F1F700C06B
S11302D000002BB12F70F0E18F9FC0011124822BFD
S11302E08BB92C9A35E03A95F1F700002C988FE3FE
S11302F09FE10197F1F700C0000008950F931F9349
S1130300CF93FC018081882379F08F01C0E00E94A3
S1130310560185ED8A95F1F70000CF5FF801EC0FE7
S1130320F11D80818111F3CFCF911F910F91089519
S113033081E00E94FD008FE39FE10197F1F700C087
S11303400000089580580E94FD0085ED8A95F1F71C
S113035000000895CF93DF9300D000D0CDB7DEB76F
S11303601A82198220E430E03C832B83E62FF0E0EC
S1130370EE0FFF1FEC0FFD1F21813281A901480FF1
S1130380511DCA010E94A2010F900F900F900F906F
S1130390DF91CF910895CF93DF93EA010E94AA01E0
S11303A0CE010E947E01DF91CF9108958F929F929A
S11303B0AF92BF92CF92DF92EF92FF920F931F936F
S11303C0CF93DF93CDB7DEB7F82ED62ECA01B9018D
S11303D0A8012E2D8DB69EB6EDB7FEB7E01BF10B2E
S11303E00FB6F894FEBF0FBEEDBF31965F018F01CB
S11303F00E94D803A5016D2D8F2D0E94CB01CC2026
S113040021F080E091E00E947E010FB6F8949EBE38
S11304100FBE8DBEDF91CF911F910F91FF90EF9092
S1130420DF90CF90BF90AF909F908F900895CF931F
S1130430C82F0E94DF0080ED0E94F5008C2F0E94DF
S1130440F5000E94DF0081ED0E94F5000E94E500A6
S1130450809325010E94ED008093240184E9809318
S1130460BC006091250170E0762F662780912401FD
S1130470682B072E000C880B990BCF910895CF930E
S1130480C82F0E94DF0080ED0E94F5008C2F0E948F
S1130490F5000E94DF0081ED0E94F5000E94ED004E
S11304A08093240184E98093BC0080912401CF913E
S11304B008950E94D0000E94250182E091E00E94EC
S11304C07E0185E70E943F02833791F40E949801E0
S11304D08FE091E00E947E012FEF8BE792E921509B
S11304E080409040E1F700C000000E9498010AC0DB
S11304F02FEF89E698E1215080409040E1F700C059
S11305000000DBCF4BE151E060E080E00E94CB01D2
S11305108BE30E9417020E944C032DE33AEF43ED54
S113052054EC0E94D8029B01AC01CC24C394EE2469
S1130530E394F12C03E010E061E080E00E94D60136
S11305404EE151E060E085E00E94CB018DE30E9422
S113055017020E944C032CEE39E942ED54EC0E9440
S1130560D8029B01AC0161E085E00E94D60141E222
S113057051E060E08AE00E94CB018FE30E94170201
S11305800E944C032AE939E14DED54EC0E94D80253
S11305909B01AC0161E08AE00E94D6012FEF81EE5D
S11305A094E0215080409040E1F700C00000AACFC1
S11305B00E94EC020C949E030E94970358F00E9440
S11305C0900340F029F45F3F29F00C948703511104
S11305D00C94D2030C948D030E94AF0368F3992307
S11305E0B1F3552391F3951B550BBB27AA2762172B
S11305F07307840738F09F5F5F4F220F331F441F38
S1130600AA1FA9F335D00E2E3AF0E0E832D091506B
S11306105040E695001CCAF72BD0FE2F29D0660F58
S1130620771F881FBB1F261737074807AB07B0E89B
S113063009F0BB0B802DBF01FF2793585F4F3AF0A1
S11306409E3F510578F00C9487030C94D2035F3FCE
S1130650E4F3983ED4F3869577956795B795F79527
S11306609F5FC9F7880F911D9695879597F908950F
S1130670E1E0660F771F881FBB1F621773078407AB
S1130680BA0720F0621B730B840BBA0BEE1F88F7BA
S1130690E0950895E89409C097FB3EF49095809501
S11306A0709561957F4F8F4F9F4F9923A9F0F92F34
S11306B096E9BB279395F695879577956795B795B2
S11306C0F111F8CFFAF4BB0F11F460FF1BC06F5F98
S11306D07F4F8F4F9F4F16C0882311F096E911C0AA
S11306E0772321F09EE8872F762F05C0662371F0CB
S11306F096E8862F70E060E02AF09A95660F771FDF
S1130700881FDAF7880F9695879597F9089597F9D2
S11307109F6780E870E060E008959FEF80EC0895A3
S113072000240A94161617061806090608950024CC
S11307300A9412161306140605060895092E039446
S1130740000C11F4882352F0BB0F40F4BF2B11F4BA
S113075060FF04C06F5F7F4F8F4F9F4F089557FD19
S11307609058440F551F59F05F3F71F04795880F1B
S113077097FB991F61F09F3F79F0879508951216B2
S113078013061406551FF2CF4695F1DF08C016165E
S113079017061806991FF1CF86957105610508940F
S11307A00895E894BB2766277727CB0197F9089526
S11307B0EF920F931F93CF93DF93E80147FD02C09D
S11307C034E001C034E1042E000C550B57FF03C084
S11307D0519541955109E32E022F242FAE010E9419
S11307E0F803CE01DF91CF911F910F91EF900895FF
S11307F0A9E0B0E0EEEFF3E00C9430066A01122FAA
S1130800B02E2BE3201720F0FF24F394F00E02C047
S11308102CE3F22E0F2D27E0AE014F5F5F4F0E94B5
S11308205205BC014981842F8970813031F0E1FC8B
S113083006C0E0FE06C090E205C09DE203C09BE254
S113084001C090E05E2D507143FF3CC0911102C085
S113085083E001C084E0811718F4212F281B01C014
S113086020E051110BC0F601822F30E2882319F0E9
S113087031938150FBCFC20ED11C20E0992329F083
S1130880D6019C93F60131966F01C6010396E2FEF0
S11308900AC03EE4D6013C9341E411964C9311976F
S11308A012963C9306C03EE6F601308341E641834E
S11308B03283FC01322F40E2332309F442C04193D6
S11308C03150FACF42FF44C0911102C083E001C00D
S11308D084E0811718F4212F281B01C020E0511156
S11308E00BC0F601822F30E2882319F03193815036
S11308F0FBCFC20ED11C20E0992329F0D6019C9392
S1130900F60131966F01C6010396E2FE0BC039E48D
S1130910D6013C933EE411963C93119736E412962B
S11309203C9307C039E6F60130833EE6318336E670
S11309303283FC01322F40E2332319F041933150CA
S1130940FBCFFC01E20FF11D10828EEF9FEFA6C0DA
S113095021E030E0911102C020E030E016161706C5
S11309601CF4FB01319602C0E1E0F0E02E0F3F1FC2
S1130970BB2021F0EB2DF0E0319602C0E0E0F0E086
S11309802E0F3F1FE12FF0E02E173F071CF4121B20
S1130990212F01C020E08E2D887159F4F601822F99
S11309A030E2882319F031938150FBCFC20ED11C61
S11309B020E0992329F0D6019C93F60131966F012A
S11309C051110BC0F601822F90E3882319F0919303
S11309D08150FBCFC20ED11C20E00F2D060F9A814F
S11309E0342F307144FF03C0913309F401501016C1
S11309F024F4093018F008E001C001E0AB0177FFEE
S1130A0002C040E050E0FB01E41BF50BA1E0B0E0C4
S1130A10AC0FBD1FEA0FFB1F8EE2A82E4B01801AFC
S1130A2091080B2D10E01195019511094F3FBFEF6F
S1130A305B0721F4D601AC9211966D01641775071A
S1130A402CF08416950614F4818101C080E3415092
S1130A5051093196D60111967D014017510724F0B2
S1130A60D6018C936701E2CF6417750739F4963386
S1130A7020F4953319F4311101C081E3F601808328
S1130A80F701822F90E2882319F091938150FBCFD4
S1130A90F701E20FF11D108280E090E02996ECE06E
S1130AA00C944C06283008F027E03327DA01990F1C
S1130AB0311D87FD916000966105710539F432603E
S1130AC02E5F3D9330E32A95E1F708959F3F30F080
S1130AD080387105610509F03C5F3C5F3D939130BE
S1130AE008F08068911DDF93CF931F930F93FF92BB
S1130AF0EF92192F987F9695E92F96959695E90F81
S1130B00FF27EE53FF4F99273327EE24FF24A70135
S1130B10E70105900894079428F4360FE71EF81EA1
S1130B20491F511D660F771F881F991F0694A1F74F
S1130B300590079428F4E70EF81E491F561FC11D9F
S1130B40770F881F991F661F0694A1F705900794D5
S1130B5028F4F80E491F561FC71FD11D880F991F6F
S1130B60661F771F0694A1F70590079420F4490F98
S1130B70561FC71FD81F990F661F771F881F06941B
S1130B80A9F784911095177041F0D695C79557959C
S1130B904795F794E7941A95C1F7E8E6F0E068946E
S1130BA01590159135916591959105907FE2739516
S1130BB0E118F10A430B560BC90BD009C0F7E10C3D
S1130BC0F11E431F561FC91FD01D7EF4703311F44C
S1130BD08A95E6CFE894015030F0080F0AF4002714
S1130BE0021708F4202F2395022F7A3328F079E393
S1130BF07D932A95E9F710C07D932A9589F606948A
S1130C0097956795379517951794E118F10A430B53
S1130C10560BC90BD00998F023957E9173957A33BE
S1130C2008F070E37C932013B8F77E9170617D9394
S1130C3030F0839571E37D9370E32A95E1F71124F5
S1130C40EF90FF900F911F91CF91DF91992787FD2E
S1130C50909508952F923F924F925F926F927F9258
S1130C608F929F92AF92BF92CF92DF92EF92FF92B8
S1130C700F931F93CF93DF93CDB7DEB7CA1BDB0B64
S1130C800FB6F894DEBF0FBECDBF09942A88398809
S1130C9048885F846E847D848C849B84AA84B98410
S1130CA0C884DF80EE80FD800C811B81AA81B9811C
S1130CB0CE0FD11D0FB6F894DEBF0FBECDBFED0130
S1090CC00895F894FFCF33
S1130CC620004D5055204F66666C696E652E004DAA
S1130CD65055204F6E6C696E652E00583D00593D87
S1070CE6005A3D006F
S9030000FC
